:10032E000E2CC0F9A4B0999282F88090BFFF8883FA
:10033E0001252D013A2A01232D013C2A013B000102
:0B034E002B000427000000000121002C
:04035A007FE87E03B7
:0A035E00EF1FAC0670011E4C70F694
:010368002272
:10010400D2A1E4F580C2A1E5217029E52475F00AA5
:1001140084242CF8E6F580D2A0C2A0E53BB4010A01
:100124003000077580FFD2A0C2A0D2A1758002C2A0
:10013400A10201C4E5216401702AE52475F00A8452
:10014400742C25F0F8E6F580D2A0C2A0E53BB401FA
:100154000A3000077580FFD2A0C2A0D2A175800129
:10016400C2A1805CE52164027028E52675F00A844A
:10017400242CF8E6F580D2A0C2A0E53BB4020A30F4
:1001840000077580FFD2A0C2A0D2A1758008C2A1C9
:10019400802EE52164037028E52675F00A84742C0A
:1001A40025F0F8E6F580D2A0C2A0E53BB4020A30FF
:1001B40000077580FFD2A0C2A0D2A1758004C2A19D
:0A01C4000521E521B40403E4F52150
:0101CE00220E
:0D036900C2A2C2A3D2A4D2A5C2A6C2A722DE
:0D037600C2A2D2A3C2A4D2A5C2A6C2A722D1
:0D038300D2A2C2A3C2A4C2A5C2A6D2A722C4
:0D039000D2A2C2A3C2A4C2A5D2A6C2A722B7
:0D039D00C2A2D2A3C2A4C2A5D2A6C2A722AA
:0D03AA00C2A2C2A3C2A4C2A5C2A6C2A722BD
:0D03B700D2A2C2A3C2A4D2A5C2A6C2A72290
:03000B0002000EE2
:07000E00C0E0C0D075D0086E
:10001500758C3C758AB00522E522B40A0AD200E542
:100025003BB403031203AAE522641460030200FF34
:10003500C200E53B60030200EAE52BC3953A501385
:10004500C3E53A952BF524C3E525952BF526120333
:10005500698070E52BD39525500EC3E525952BF5C5
:1000650024F526120376805BE525253CFFE433FE67
:10007500AD2B7C00D3ED9FEE6480F8748098501909
:10008500E5252523C3952B04F524E525253CC395B6
:100095002B04F526120383802AE5252523FFE43367
:1000A500CF2401CF3400FED3ED9FEE6480F8EC64DD
:1000B5008098500FE5252523C3952B04F524F526B7
:1000C500120390052BE5252523FFE433CF2401CF2B
:1000D5003400FED3E52B9FEE6480F87480984017BA
:1000E500752B008012E53BB4030512039D8008E5DE
:0A00F5003BB404031203B7752200A8
:0500FF00D0D0D0E0327A
:10025B0020B13912035A20B130E53BB4010EE5242D
:10026B00D394054024152485243A8011E53BB40230
:10027B0018E526D394054011152685263CE53A242E
:10028B0003F525E53C2403F52330B1FD20B03912ED
:10029B00035A20B030E53BB4010EE524C39437502C
:1002AB0024052485243A8011E53BB40218E526C3C6
:1002BB0094375011052685263CE53A2403F525E5B0
:0902CB003C2403F52330B0FD22B0
:0703C400D288D2A8D2AF22BB
:1002D400758901758C3C758AB0D2AFD2A9D28C12C3
:1002E40003C4E53A2403F525E53C2403F523120170
:0D02F4000412025B7F147E0012035E80F195
:03000300020301F4
:10030100C0E0C0D075D000C004C006C00712035AB7
:1003110020B20F053BE53BD394044003753B0075C8
:0D0321002B00D007D006D004D0D0D0E032A1
:030000000201CF2B
:0C01CF00787FE4F6D8FD75813C02021632
:1001DB000202D4E493A3F8E493A34003F68001F264
:1001EB0008DFF48029E493A3F85407240CC8C33325
:1001FB00C4540F4420C8834004F456800146F6DFF4
:10020B00E4800B010204081020408090032EE47E52
:10021B00019360BCA3FF543F30E509541FFEE493E8
:10022B00A360010ECF54C025E060A840B8E493A3AF
:10023B00FAE493A3F8E493A3C8C582C8CAC583CADA
:10024B00F0A3C8C582C8CAC583CADFE9DEE780BE92
:0103590000A3
:00000001FF
